{"abi":[{"type":"function","name":"M","inputs":[],"outputs":[{"name":"","type":"uint256","internalType":"uint256"}],"stateMutability":"view"},{"type":"function","name":"MIN_LIQUIDITY","inputs":[],"outputs":[{"name":"","type":"uint256","internalType":"uint256"}],"stateMutability":"view"},{"type":"function","name":"N","inputs":[],"outputs":[{"name":"","type":"uint256","internalType":"uint256"}],"stateMutability":"view"},{"type":"function","name":"SCALE","inputs":[],"outputs":[{"name":"","type":"uint256","internalType":"uint256"}],"stateMutability":"view"},{"type":"function","name":"burn","inputs":[{"name":"userToken","type":"address","internalType":"address"},{"name":"validatorToken","type":"address","internalType":"address"},{"name":"liquidity","type":"uint256","internalType":"uint256"},{"name":"to","type":"address","internalType":"address"}],"outputs":[{"name":"amountUserToken","type":"uint256","internalType":"uint256"},{"name":"amountValidatorToken","type":"uint256","internalType":"uint256"}],"stateMutability":"nonpayable"},{"type":"function","name":"checkSufficientLiquidity","inputs":[{"name":"userToken","type":"address","internalType":"address"},{"name":"validatorToken","type":"address","internalType":"address"},{"name":"maxAmount","type":"uint256","internalType":"uint256"}],"outputs":[],"stateMutability":"view"},{"type":"function","name":"executeFeeSwap","inputs":[{"name":"userToken","type":"address","internalType":"address"},{"name":"validatorToken","type":"address","internalType":"address"},{"name":"amountIn","type":"uint256","internalType":"uint256"}],"outputs":[{"name":"amountOut","type":"uint256","internalType":"uint256"}],"stateMutability":"nonpayable"},{"type":"function","name":"getPool","inputs":[{"name":"userToken","type":"address","internalType":"address"},{"name":"validatorToken","type":"address","internalType":"address"}],"outputs":[{"name":"","type":"tuple","internalType":"struct FeeAMM.Pool","components":[{"name":"reserveUserToken","type":"uint128","internalType":"uint128"},{"name":"reserveValidatorToken","type":"uint128","internalType":"uint128"}]}],"stateMutability":"view"},{"type":"function","name":"getPoolId","inputs":[{"name":"userToken","type":"address","internalType":"address"},{"name":"validatorToken","type":"address","internalType":"address"}],"outputs":[{"name":"","type":"bytes32","internalType":"bytes32"}],"stateMutability":"pure"},{"type":"function","name":"liquidityBalances","inputs":[{"name":"","type":"bytes32","internalType":"bytes32"},{"name":"","type":"address","internalType":"address"}],"outputs":[{"name":"","type":"uint256","internalType":"uint256"}],"stateMutability":"view"},{"type":"function","name":"mint","inputs":[{"name":"userToken","type":"address","internalType":"address"},{"name":"validatorToken","type":"address","internalType":"address"},{"name":"amountValidatorToken","type":"uint256","internalType":"uint256"},{"name":"to","type":"address","internalType":"address"}],"outputs":[{"name":"liquidity","type":"uint256","internalType":"uint256"}],"stateMutability":"nonpayable"},{"type":"function","name":"pools","inputs":[{"name":"","type":"bytes32","internalType":"bytes32"}],"outputs":[{"name":"reserveUserToken","type":"uint128","internalType":"uint128"},{"name":"reserveValidatorToken","type":"uint128","internalType":"uint128"}],"stateMutability":"view"},{"type":"function","name":"rebalanceSwap","inputs":[{"name":"userToken","type":"address","internalType":"address"},{"name":"validatorToken","type":"address","internalType":"address"},{"name":"amountOut","type":"uint256","internalType":"uint256"},{"name":"to","type":"address","internalType":"address"}],"outputs":[{"name":"amountIn","type":"uint256","internalType":"uint256"}],"stateMutability":"nonpayable"},{"type":"function","name":"totalSupply","inputs":[{"name":"","type":"bytes32","internalType":"bytes32"}],"outputs":[{"name":"","type":"uint256","internalType":"uint256"}],"stateMutability":"view"},{"type":"event","name":"Burn","inputs":[{"name":"sender","type":"address","indexed":true,"internalType":"address"},{"name":"userToken","type":"address","indexed":false,"internalType":"address"},{"name":"validatorToken","type":"address","indexed":false,"internalType":"address"},{"name":"amountUserToken","type":"uint256","indexed":false,"internalType":"uint256"},{"name":"amountValidatorToken","type":"uint256","indexed":false,"internalType":"uint256"},{"name":"liquidity","type":"uint256","indexed":false,"internalType":"uint256"},{"name":"to","type":"address","indexed":true,"internalType":"address"}],"anonymous":false},{"type":"event","name":"FeeSwap","inputs":[{"name":"userToken","type":"address","indexed":true,"internalType":"address"},{"name":"validatorToken","type":"address","indexed":true,"internalType":"address"},{"name":"sender","type":"address","indexed":true,"internalType":"address"},{"name":"amountIn","type":"uint256","indexed":false,"internalType":"uint256"},{"name":"amountOut","type":"uint256","indexed":false,"internalType":"uint256"}],"anonymous":false},{"type":"event","name":"Mint","inputs":[{"name":"sender","type":"address","indexed":true,"internalType":"address"},{"name":"to","type":"address","indexed":true,"internalType":"address"},{"name":"userToken","type":"address","indexed":false,"internalType":"address"},{"name":"validatorToken","type":"address","indexed":false,"internalType":"address"},{"name":"amountValidatorToken","type":"uint256","indexed":false,"internalType":"uint256"},{"name":"liquidity","type":"uint256","indexed":false,"internalType":"uint256"}],"anonymous":false},{"type":"event","name":"RebalanceSwap","inputs":[{"name":"userToken","type":"address","indexed":true,"internalType":"address"},{"name":"validatorToken","type":"address","indexed":true,"internalType":"address"},{"name":"sender","type":"address","indexed":true,"internalType":"address"},{"name":"amountIn","type":"uint256","indexed":false,"internalType":"uint256"},{"name":"amountOut","type":"uint256","indexed":false,"internalType":"uint256"}],"anonymous":false},{"type":"error","name":"IdenticalAddresses","inputs":[]},{"type":"error","name":"InsufficientLiquidity","inputs":[]},{"type":"error","name":"InsufficientReserves","inputs":[]},{"type":"error","name":"InvalidAmount","inputs":[]},{"type":"error","name":"InvalidCurrency","inputs":[]},{"type":"error","name":"InvalidToken","inputs":[]}],"bytecode":{"object":"0x6080604052348015600e575f5ffd5b50611d0d8061001c5f395ff3fe608060405234801561000f575f5ffd5b50600436106100e8575f3560e01c806386d2fbb01161008a578063c9e525df11610064578063c9e525df14610295578063eced5526146102b3578063f1aa8cb8146102d1578063fa291e5314610301576100e8565b806386d2fbb014610218578063b5217bb414610234578063b524abcf14610265576100e8565b80632ef61c21116100c65780632ef61c211461016a5780634fb5bf7f1461019a578063531aa03e146101ca578063693f917e146101fa576100e8565b80631bd94ac7146100ec57806321b77d631461011c57806325599fc91461013a575b5f5ffd5b610106600480360381019061010191906116ef565b610332565b6040516101139190611762565b60405180910390f35b610124610702565b6040516101319190611762565b60405180910390f35b610154600480360381019061014f919061177b565b610708565b6040516101619190611762565b60405180910390f35b610184600480360381019061017f91906117cb565b610a0b565b6040516101919190611821565b60405180910390f35b6101b460048036038101906101af9190611864565b610a3d565b6040516101c19190611762565b60405180910390f35b6101e460048036038101906101df91906117cb565b610a5d565b6040516101f191906118f9565b60405180910390f35b610202610b27565b60405161020f9190611762565b60405180910390f35b610232600480360381019061022d919061177b565b610b2d565b005b61024e60048036038101906102499190611912565b610bd9565b60405161025c92919061194c565b60405180910390f35b61027f600480360381019061027a9190611912565b610c2e565b60405161028c9190611762565b60405180910390f35b61029d610c43565b6040516102aa9190611762565b60405180910390f35b6102bb610c49565b6040516102c89190611762565b60405180910390f35b6102eb60048036038101906102e691906116ef565b610c4f565b6040516102f89190611762565b60405180910390f35b61031b600480360381019061031691906116ef565b6110f5565b604051610329929190611973565b60405180910390f35b5f5f830361036c576040517f2c5211c600000000000000000000000000000000000000000000000000000000815260040160405180910390fd5b5f6103778686610a0b565b905060016127106127018661038c91906119c7565b6103969190611a35565b6103a09190611a65565b91505f5f5f8381526020019081526020015f2090506103be85611520565b6103c783611520565b6fffffffffffffffffffffffffffffffff801683825f0160109054906101000a90046fffffffffffffffffffffffffffffffff166fffffffffffffffffffffffffffffffff166104179190611a65565b111561044f576040517f945e926800000000000000000000000000000000000000000000000000000000815260040160405180910390fd5b84815f015f9054906101000a90046fffffffffffffffffffffffffffffffff166fffffffffffffffffffffffffffffffff1610156104b9576040517f2c5211c600000000000000000000000000000000000000000000000000000000815260040160405180910390fd5b82815f0160108282829054906101000a90046fffffffffffffffffffffffffffffffff166104e79190611a98565b92506101000a8154816fffffffffffffffffffffffffffffffff02191690836fffffffffffffffffffffffffffffffff16021790555084815f015f8282829054906101000a90046fffffffffffffffffffffffffffffffff1661054a9190611adb565b92506101000a8154816fffffffffffffffffffffffffffffffff02191690836fffffffffffffffffffffffffffffffff1602179055508573ffffffffffffffffffffffffffffffffffffffff166323b872dd3330866040518463ffffffff1660e01b81526004016105bd93929190611b2d565b6020604051808303815f875af11580156105d9573d5f5f3e3d5ffd5b505050506040513d601f19601f820116820180604052508101906105fd9190611b97565b508673ffffffffffffffffffffffffffffffffffffffff1663a9059cbb85876040518363ffffffff1660e01b8152600401610639929190611bc2565b6020604051808303815f875af1158015610655573d5f5f3e3d5ffd5b505050506040513d601f19601f820116820180604052508101906106799190611b97565b503373ffffffffffffffffffffffffffffffffffffffff168673ffffffffffffffffffffffffffffffffffffffff168873ffffffffffffffffffffffffffffffffffffffff167f1e9bc167ac8bc86f20f6d5c4c24338e554a9ae0f92faa67d1e2f59fe4a89c97f86896040516106f0929190611973565b60405180910390a45050949350505050565b6103e881565b5f5f6107148585610a0b565b90505f5f5f8381526020019081526020015f2090506127106126f28561073a91906119c7565b6107449190611a35565b925061074f84611520565b61075883611520565b82815f0160109054906101000a90046fffffffffffffffffffffffffffffffff166fffffffffffffffffffffffffffffffff1610156107c3576040517fbb55fd2700000000000000000000000000000000000000000000000000000000815260040160405180910390fd5b8573ffffffffffffffffffffffffffffffffffffffff166323b872dd3330876040518463ffffffff1660e01b815260040161080093929190611b2d565b6020604051808303815f875af115801561081c573d5f5f3e3d5ffd5b505050506040513d601f19601f820116820180604052508101906108409190611b97565b5083815f015f8282829054906101000a90046fffffffffffffffffffffffffffffffff1661086e9190611a98565b92506101000a8154816fffffffffffffffffffffffffffffffff02191690836fffffffffffffffffffffffffffffffff16021790555082815f0160108282829054906101000a90046fffffffffffffffffffffffffffffffff166108d29190611adb565b92506101000a8154816fffffffffffffffffffffffffffffffff02191690836fffffffffffffffffffffffffffffffff1602179055508473ffffffffffffffffffffffffffffffffffffffff1663a9059cbb33856040518363ffffffff1660e01b8152600401610943929190611bc2565b6020604051808303815f875af115801561095f573d5f5f3e3d5ffd5b505050506040513d601f19601f820116820180604052508101906109839190611b97565b503373ffffffffffffffffffffffffffffffffffffffff168573ffffffffffffffffffffffffffffffffffffffff168773ffffffffffffffffffffffffffffffffffffffff167f62db4a6aee5207e5e72d442924950a5697e2a7788fde124408b9afe5b97eb55987876040516109fa929190611973565b60405180910390a450509392505050565b5f8282604051602001610a1f929190611be9565b60405160208183030381529060405280519060200120905092915050565b6002602052815f5260405f20602052805f5260405f205f91509150505481565b610a65611622565b5f610a708484610a0b565b90505f5f8281526020019081526020015f206040518060400160405290815f82015f9054906101000a90046fffffffffffffffffffffffffffffffff166fffffffffffffffffffffffffffffffff166fffffffffffffffffffffffffffffffff1681526020015f820160109054906101000a90046fffffffffffffffffffffffffffffffff166fffffffffffffffffffffffffffffffff166fffffffffffffffffffffffffffffffff168152505091505092915050565b6126f281565b5f610b388484610a0b565b90505f6127106126f284610b4c91906119c7565b610b569190611a35565b9050805f5f8481526020019081526020015f205f0160109054906101000a90046fffffffffffffffffffffffffffffffff166fffffffffffffffffffffffffffffffff161015610bd2576040517fbb55fd2700000000000000000000000000000000000000000000000000000000815260040160405180910390fd5b5050505050565b5f602052805f5260405f205f91509050805f015f9054906101000a90046fffffffffffffffffffffffffffffffff1690805f0160109054906101000a90046fffffffffffffffffffffffffffffffff16905082565b6001602052805f5260405f205f915090505481565b61270181565b61271081565b5f8373ffffffffffffffffffffffffffffffffffffffff168573ffffffffffffffffffffffffffffffffffffffff1603610cb5576040517fbd969eb000000000000000000000000000000000000000000000000000000000815260040160405180910390fd5b5f8303610cee576040517f2c5211c600000000000000000000000000000000000000000000000000000000815260040160405180910390fd5b5f610cf98686610a0b565b90505f5f5f8381526020019081526020015f2090505f60015f8481526020019081526020015f205490505f825f015f9054906101000a90046fffffffffffffffffffffffffffffffff166fffffffffffffffffffffffffffffffff16148015610d9257505f825f0160109054906101000a90046fffffffffffffffffffffffffffffffff166fffffffffffffffffffffffffffffffff16145b15610e28576103e8600287610da79190611a35565b11610dde576040517fbb55fd2700000000000000000000000000000000000000000000000000000000815260040160405180910390fd5b6103e8600287610dee9190611a35565b610df89190611c10565b93506103e860015f8581526020019081526020015f205f828254610e1c9190611a65565b92505081905550610ed2565b5f612710835f015f9054906101000a90046fffffffffffffffffffffffffffffffff166fffffffffffffffffffffffffffffffff16612701610e6a91906119c7565b610e749190611a35565b90505f81845f0160109054906101000a90046fffffffffffffffffffffffffffffffff166fffffffffffffffffffffffffffffffff16610eb49190611a65565b9050808389610ec391906119c7565b610ecd9190611a35565b955050505b5f8403610f0b576040517fbb55fd2700000000000000000000000000000000000000000000000000000000815260040160405180910390fd5b610f1486611520565b8673ffffffffffffffffffffffffffffffffffffffff166323b872dd3330896040518463ffffffff1660e01b8152600401610f5193929190611b2d565b6020604051808303815f875af1158015610f6d573d5f5f3e3d5ffd5b505050506040513d601f19601f82011682018060405250810190610f919190611b97565b5085825f0160108282829054906101000a90046fffffffffffffffffffffffffffffffff16610fc09190611a98565b92506101000a8154816fffffffffffffffffffffffffffffffff02191690836fffffffffffffffffffffffffffffffff1602179055508360015f8581526020019081526020015f205f8282546110169190611a65565b925050819055508360025f8581526020019081526020015f205f8773ffffffffffffffffffffffffffffffffffffffff1673ffffffffffffffffffffffffffffffffffffffff1681526020019081526020015f205f8282546110789190611a65565b925050819055508473ffffffffffffffffffffffffffffffffffffffff163373ffffffffffffffffffffffffffffffffffffffff167ff114ca9eb82947af39f957fa726280fd3d5d81c3d7635a4aeb5c302962856eba8a8a8a896040516110e29493929190611c43565b60405180910390a3505050949350505050565b5f5f8473ffffffffffffffffffffffffffffffffffffffff168673ffffffffffffffffffffffffffffffffffffffff160361115c576040517fbd969eb000000000000000000000000000000000000000000000000000000000815260040160405180910390fd5b5f8403611195576040517f2c5211c600000000000000000000000000000000000000000000000000000000815260040160405180910390fd5b5f6111a08787610a0b565b90505f5f5f8381526020019081526020015f2090508560025f8481526020019081526020015f205f3373ffffffffffffffffffffffffffffffffffffffff1673ffffffffffffffffffffffffffffffffffffffff1681526020019081526020015f2054101561123b576040517fbb55fd2700000000000000000000000000000000000000000000000000000000815260040160405180910390fd5b61124681838861156f565b809450819550505061125784611520565b61126083611520565b8773ffffffffffffffffffffffffffffffffffffffff1663a9059cbb86866040518363ffffffff1660e01b815260040161129b929190611bc2565b6020604051808303815f875af11580156112b7573d5f5f3e3d5ffd5b505050506040513d601f19601f820116820180604052508101906112db9190611b97565b508673ffffffffffffffffffffffffffffffffffffffff1663a9059cbb86856040518363ffffffff1660e01b8152600401611317929190611bc2565b6020604051808303815f875af1158015611333573d5f5f3e3d5ffd5b505050506040513d601f19601f820116820180604052508101906113579190611b97565b508560025f8481526020019081526020015f205f3373ffffffffffffffffffffffffffffffffffffffff1673ffffffffffffffffffffffffffffffffffffffff1681526020019081526020015f205f8282546113b39190611c10565b925050819055508560015f8481526020019081526020015f205f8282546113da9190611c10565b9250508190555083815f015f8282829054906101000a90046fffffffffffffffffffffffffffffffff1661140e9190611adb565b92506101000a8154816fffffffffffffffffffffffffffffffff02191690836fffffffffffffffffffffffffffffffff16021790555082815f0160108282829054906101000a90046fffffffffffffffffffffffffffffffff166114729190611adb565b92506101000a8154816fffffffffffffffffffffffffffffffff02191690836fffffffffffffffffffffffffffffffff1602179055508473ffffffffffffffffffffffffffffffffffffffff163373ffffffffffffffffffffffffffffffffffffffff167fa1306df62797fd30333308e15e2db0aed324580be7f22c124614a44310ec7fcc8a8a88888c60405161150d959493929190611c86565b60405180910390a3505094509492505050565b6fffffffffffffffffffffffffffffffff801681111561156c576040517f2c5211c600000000000000000000000000000000000000000000000000000000815260040160405180910390fd5b50565b5f5f5f60015f8681526020019081526020015f2054905080865f015f9054906101000a90046fffffffffffffffffffffffffffffffff166fffffffffffffffffffffffffffffffff16856115c391906119c7565b6115cd9190611a35565b925080865f0160109054906101000a90046fffffffffffffffffffffffffffffffff166fffffffffffffffffffffffffffffffff168561160d91906119c7565b6116179190611a35565b915050935093915050565b60405180604001604052805f6fffffffffffffffffffffffffffffffff1681526020015f6fffffffffffffffffffffffffffffffff1681525090565b5f5ffd5b5f73ffffffffffffffffffffffffffffffffffffffff82169050919050565b5f61168b82611662565b9050919050565b61169b81611681565b81146116a5575f5ffd5b50565b5f813590506116b681611692565b92915050565b5f819050919050565b6116ce816116bc565b81146116d8575f5ffd5b50565b5f813590506116e9816116c5565b92915050565b5f5f5f5f608085870312156117075761170661165e565b5b5f611714878288016116a8565b9450506020611725878288016116a8565b9350506040611736878288016116db565b9250506060611747878288016116a8565b91505092959194509250565b61175c816116bc565b82525050565b5f6020820190506117755f830184611753565b92915050565b5f5f5f606084860312156117925761179161165e565b5b5f61179f868287016116a8565b93505060206117b0868287016116a8565b92505060406117c1868287016116db565b9150509250925092565b5f5f604083850312156117e1576117e061165e565b5b5f6117ee858286016116a8565b92505060206117ff858286016116a8565b9150509250929050565b5f819050919050565b61181b81611809565b82525050565b5f6020820190506118345f830184611812565b92915050565b61184381611809565b811461184d575f5ffd5b50565b5f8135905061185e8161183a565b92915050565b5f5f6040838503121561187a5761187961165e565b5b5f61188785828601611850565b9250506020611898858286016116a8565b9150509250929050565b5f6fffffffffffffffffffffffffffffffff82169050919050565b6118c6816118a2565b82525050565b604082015f8201516118e05f8501826118bd565b5060208201516118f360208501826118bd565b50505050565b5f60408201905061190c5f8301846118cc565b92915050565b5f602082840312156119275761192661165e565b5b5f61193484828501611850565b91505092915050565b611946816118a2565b82525050565b5f60408201905061195f5f83018561193d565b61196c602083018461193d565b9392505050565b5f6040820190506119865f830185611753565b6119936020830184611753565b9392505050565b7f4e487b71000000000000000000000000000000000000000000000000000000005f52601160045260245ffd5b5f6119d1826116bc565b91506119dc836116bc565b92508282026119ea816116bc565b91508282048414831517611a0157611a0061199a565b5b5092915050565b7f4e487b71000000000000000000000000000000000000000000000000000000005f52601260045260245ffd5b5f611a3f826116bc565b9150611a4a836116bc565b925082611a5a57611a59611a08565b5b828204905092915050565b5f611a6f826116bc565b9150611a7a836116bc565b9250828201905080821115611a9257611a9161199a565b5b92915050565b5f611aa2826118a2565b9150611aad836118a2565b925082820190506fffffffffffffffffffffffffffffffff811115611ad557611ad461199a565b5b92915050565b5f611ae5826118a2565b9150611af0836118a2565b925082820390506fffffffffffffffffffffffffffffffff811115611b1857611b1761199a565b5b92915050565b611b2781611681565b82525050565b5f606082019050611b405f830186611b1e565b611b4d6020830185611b1e565b611b5a6040830184611753565b949350505050565b5f8115159050919050565b611b7681611b62565b8114611b80575f5ffd5b50565b5f81519050611b9181611b6d565b92915050565b5f60208284031215611bac57611bab61165e565b5b5f611bb984828501611b83565b91505092915050565b5f604082019050611bd55f830185611b1e565b611be26020830184611753565b9392505050565b5f604082019050611bfc5f830185611b1e565b611c096020830184611b1e565b9392505050565b5f611c1a826116bc565b9150611c25836116bc565b9250828203905081811115611c3d57611c3c61199a565b5b92915050565b5f608082019050611c565f830187611b1e565b611c636020830186611b1e565b611c706040830185611753565b611c7d6060830184611753565b95945050505050565b5f60a082019050611c995f830188611b1e565b611ca66020830187611b1e565b611cb36040830186611753565b611cc06060830185611753565b611ccd6080830184611753565b969550505050505056fea26469706673582212201a62d5f383967c7004811d3da48026ebde7d10b40364d7babab82be8abcfe4a464736f6c634300081c0033","linkReferences":{}},"methodIdentifiers":{"M()":"693f917e","MIN_LIQUIDITY()":"21b77d63","N()":"c9e525df","SCALE()":"eced5526","burn(address,address,uint256,address)":"fa291e53","checkSufficientLiquidity(address,address,uint256)":"86d2fbb0","executeFeeSwap(address,address,uint256)":"25599fc9","getPool(address,address)":"531aa03e","getPoolId(address,address)":"2ef61c21","liquidityBalances(bytes32,address)":"4fb5bf7f","mint(address,address,uint256,address)":"f1aa8cb8","pools(bytes32)":"b5217bb4","rebalanceSwap(address,address,uint256,address)":"1bd94ac7","totalSupply(bytes32)":"b524abcf"},"id":0}